{
  "contractName": "ERC20MembershipResolver",
  "abi": [
    {
      "inputs": [
        {
          "name": "_IERC20",
          "type": "address"
        }
      ],
      "payable": false,
      "stateMutability": "nonpayable",
      "type": "constructor"
    },
    {
      "constant": false,
      "inputs": [
        {
          "name": "x",
          "type": "address"
        }
      ],
      "name": "isMember",
      "outputs": [
        {
          "name": "",
          "type": "bool"
        }
      ],
      "payable": false,
      "stateMutability": "nonpayable",
      "type": "function"
    }
  ],
  "bytecode": "0x608060405234801561001057600080fd5b5060405160208061022d8339810180604052602081101561003057600080fd5b8101908080519060200190929190505050806000806101000a81548173ffffffffffffffffffffffffffffffffffffffff021916908373ffffffffffffffffffffffffffffffffffffffff1602179055505061019c806100916000396000f3fe608060405234801561001057600080fd5b506004361061002b5760003560e01c8063a230c52414610030575b600080fd5b6100726004803603602081101561004657600080fd5b81019080803573ffffffffffffffffffffffffffffffffffffffff16906020019092919050505061008c565b604051808215151515815260200191505060405180910390f35b6000806000809054906101000a900473ffffffffffffffffffffffffffffffffffffffff1673ffffffffffffffffffffffffffffffffffffffff166370a08231846040518263ffffffff1660e01b8152600401808273ffffffffffffffffffffffffffffffffffffffff1673ffffffffffffffffffffffffffffffffffffffff16815260200191505060206040518083038186803b15801561012d57600080fd5b505afa158015610141573d6000803e3d6000fd5b505050506040513d602081101561015757600080fd5b810190808051906020019092919050505011905091905056fea165627a7a72305820873205e53549e06a4d7beae7901aa537d186608b329a6a63baf0ef296a389b860029",
  "source": "pragma solidity >=0.4.21 <0.6.0;\n\nimport \"@openzeppelin/contracts/token/ERC721/ERC721Full.sol\";\nimport \"@openzeppelin/contracts/token/ERC721/IERC721.sol\";\nimport \"@openzeppelin/contracts/token/ERC20/IERC20.sol\";\n\ninterface IMembershipResolver {\n    function isMember(address x) external returns (bool);\n}\n\n\ncontract ERC721SpaceCadet is ERC721Full {\n    constructor(string memory name, address[] memory invitees) ERC721Full(\"\", \"XXX\") public {\n        uint tokenId = 0;\n        _mint(msg.sender, tokenId++);\n        for(uint i = 0; i < invitees.length; i++) {\n            _mint(invitees[i], tokenId++);\n        }\n    }\n}\n\n\n\ncontract ERC20MembershipResolver is IMembershipResolver {\n    IERC20 erc20;\n    \n    constructor(address _IERC20) public {\n        erc20 = IERC20(_IERC20);\n    }\n\n    function isMember(address x) public returns (bool) {\n        return erc20.balanceOf(x) > 0;\n    }\n}\n\ncontract ERC721MembershipResolver is IMembershipResolver {\n    IERC721 erc721;\n    \n    constructor(address _IERC721) public {\n        erc721 = IERC721(_IERC721);\n    }\n\n    function isMember(address x) public returns (bool) {\n        return erc721.balanceOf(x) > 0;\n    }\n}\n\ncontract Space is IMembershipResolver {\n    IMembershipResolver membershipResolver;\n\n    constructor(IMembershipResolver _IMembershipResolver) public {\n        membershipResolver = _IMembershipResolver;\n    }\n\n    function isMember(address a) public returns (bool) {\n        return membershipResolver.isMember(a);\n    }\n}\n\n// TODO(liamz): typo should be space factory\ncontract SpaceCadetFactory {\n    event NewSpace(address indexed space, string indexed name);\n\n    constructor() public {\n    }\n\n    function createERC20Space(string calldata name, address erc20) external {\n        Space space = new Space(new ERC20MembershipResolver(erc20));\n        emit NewSpace(address(space), name);\n    }\n\n    function createERC721Space(string calldata name, address erc721) external {\n        Space space = new Space(new ERC721MembershipResolver(erc721));\n        emit NewSpace(address(space), name);\n    }\n\n    function createSpace(string calldata name, address[] calldata invitees) external {\n        ERC721SpaceCadet erc = new ERC721SpaceCadet(name, invitees);\n        this.createERC721Space(name, address(erc));\n    }\n}",
  "sourcePath": "/Users/liamz/Documents/open-source/everest/fundao/contracts/Group.sol",
  "compiler": {
    "name": "solc",
    "version": "0.5.8+commit.23d335f2.Emscripten.clang"
  },
  "schemaVersion": "3.0.10",
  "updatedAt": "2019-08-25T01:45:14.883Z",
  "devdoc": {
    "methods": {}
  },
  "userdoc": {
    "methods": {}
  }
}