{
  "contractName": "SpaceCadetFactory",
  "abi": [
    {
      "inputs": [],
      "payable": false,
      "stateMutability": "nonpayable",
      "type": "constructor"
    },
    {
      "anonymous": false,
      "inputs": [
        {
          "indexed": true,
          "name": "space",
          "type": "address"
        },
        {
          "indexed": true,
          "name": "name",
          "type": "string"
        }
      ],
      "name": "NewSpace",
      "type": "event"
    },
    {
      "constant": false,
      "inputs": [
        {
          "name": "name",
          "type": "string"
        },
        {
          "name": "erc20",
          "type": "address"
        }
      ],
      "name": "createERC20Space",
      "outputs": [],
      "payable": false,
      "stateMutability": "nonpayable",
      "type": "function"
    },
    {
      "constant": false,
      "inputs": [
        {
          "name": "name",
          "type": "string"
        },
        {
          "name": "erc721",
          "type": "address"
        }
      ],
      "name": "createERC721Space",
      "outputs": [],
      "payable": false,
      "stateMutability": "nonpayable",
      "type": "function"
    },
    {
      "constant": false,
      "inputs": [
        {
          "name": "name",
          "type": "string"
        },
        {
          "name": "invitees",
          "type": "address[]"
        }
      ],
      "name": "createSpace",
      "outputs": [],
      "payable": false,
      "stateMutability": "nonpayable",
      "type": "function"
    }
  ],
  "bytecode": "0x608060405234801561001057600080fd5b50613a0c806100206000396000f3fe60806040523480156200001157600080fd5b5060043610620000465760003560e01c806330b7944d146200004b5780633acf6d6114620000ea5780636df10b8b14620001c1575b600080fd5b620000e8600480360360408110156200006357600080fd5b81019080803590602001906401000000008111156200008157600080fd5b8201836020820111156200009457600080fd5b80359060200191846001830284011164010000000083111715620000b757600080fd5b9091929391929390803573ffffffffffffffffffffffffffffffffffffffff16906020019092919050505062000260565b005b620001bf600480360360408110156200010257600080fd5b81019080803590602001906401000000008111156200012057600080fd5b8201836020820111156200013357600080fd5b803590602001918460018302840111640100000000831117156200015657600080fd5b9091929391929390803590602001906401000000008111156200017857600080fd5b8201836020820111156200018b57600080fd5b80359060200191846020830284011164010000000083111715620001ae57600080fd5b909192939192939050505062000391565b005b6200025e60048036036040811015620001d957600080fd5b8101908080359060200190640100000000811115620001f757600080fd5b8201836020820111156200020a57600080fd5b803590602001918460018302840111640100000000831117156200022d57600080fd5b9091929391929390803573ffffffffffffffffffffffffffffffffffffffff16906020019092919050505062000503565b005b600081604051620002719062000634565b808273ffffffffffffffffffffffffffffffffffffffff1673ffffffffffffffffffffffffffffffffffffffff168152602001915050604051809103906000f080158015620002c4573d6000803e3d6000fd5b50604051620002d39062000642565b808273ffffffffffffffffffffffffffffffffffffffff1673ffffffffffffffffffffffffffffffffffffffff168152602001915050604051809103906000f08015801562000326573d6000803e3d6000fd5b509050838360405180838380828437808301925050509250505060405180910390208173ffffffffffffffffffffffffffffffffffffffff167fe41cadb3094952a9014f4a2acf9352e2052f37eae6e3f2c0587735ccb26e1d2a60405160405180910390a350505050565b600084848484604051620003a59062000650565b8080602001806020018381038352878782818152602001925080828437600081840152601f19601f8201169050808301925050508381038252858582818152602001925060200280828437600081840152601f19601f8201169050808301925050509650505050505050604051809103906000f0801580156200042c573d6000803e3d6000fd5b5090503073ffffffffffffffffffffffffffffffffffffffff16636df10b8b8686846040518463ffffffff1660e01b815260040180806020018373ffffffffffffffffffffffffffffffffffffffff1673ffffffffffffffffffffffffffffffffffffffff1681526020018281038252858582818152602001925080828437600081840152601f19601f820116905080830192505050945050505050600060405180830381600087803b158015620004e357600080fd5b505af1158015620004f8573d6000803e3d6000fd5b505050505050505050565b60008160405162000514906200065e565b808273ffffffffffffffffffffffffffffffffffffffff1673ffffffffffffffffffffffffffffffffffffffff168152602001915050604051809103906000f08015801562000567573d6000803e3d6000fd5b50604051620005769062000642565b808273ffffffffffffffffffffffffffffffffffffffff1673ffffffffffffffffffffffffffffffffffffffff168152602001915050604051809103906000f080158015620005c9573d6000803e3d6000fd5b509050838360405180838380828437808301925050509250505060405180910390208173ffffffffffffffffffffffffffffffffffffffff167fe41cadb3094952a9014f4a2acf9352e2052f37eae6e3f2c0587735ccb26e1d2a60405160405180910390a350505050565b61022d806200066d83390190565b61022b806200089a83390190565b612cef8062000ac583390190565b61022d80620037b48339019056fe608060405234801561001057600080fd5b5060405160208061022d8339810180604052602081101561003057600080fd5b8101908080519060200190929190505050806000806101000a81548173ffffffffffffffffffffffffffffffffffffffff021916908373ffffffffffffffffffffffffffffffffffffffff1602179055505061019c806100916000396000f3fe608060405234801561001057600080fd5b506004361061002b5760003560e01c8063a230c52414610030575b600080fd5b6100726004803603602081101561004657600080fd5b81019080803573ffffffffffffffffffffffffffffffffffffffff16906020019092919050505061008c565b604051808215151515815260200191505060405180910390f35b6000806000809054906101000a900473ffffffffffffffffffffffffffffffffffffffff1673ffffffffffffffffffffffffffffffffffffffff166370a08231846040518263ffffffff1660e01b8152600401808273ffffffffffffffffffffffffffffffffffffffff1673ffffffffffffffffffffffffffffffffffffffff16815260200191505060206040518083038186803b15801561012d57600080fd5b505afa158015610141573d6000803e3d6000fd5b505050506040513d602081101561015757600080fd5b810190808051906020019092919050505011905091905056fea165627a7a723058204c71f065969a72bc0eb24cdc225e90adecd7f5860f8535b2e27f30346daf5e680029608060405234801561001057600080fd5b5060405160208061022b8339810180604052602081101561003057600080fd5b8101908080519060200190929190505050806000806101000a81548173ffffffffffffffffffffffffffffffffffffffff021916908373ffffffffffffffffffffffffffffffffffffffff1602179055505061019a806100916000396000f3fe608060405234801561001057600080fd5b506004361061002b5760003560e01c8063a230c52414610030575b600080fd5b6100726004803603602081101561004657600080fd5b81019080803573ffffffffffffffffffffffffffffffffffffffff16906020019092919050505061008c565b604051808215151515815260200191505060405180910390f35b60008060009054906101000a900473ffffffffffffffffffffffffffffffffffffffff1673ffffffffffffffffffffffffffffffffffffffff1663a230c524836040518263ffffffff1660e01b8152600401808273ffffffffffffffffffffffffffffffffffffffff1673ffffffffffffffffffffffffffffffffffffffff16815260200191505060206040518083038186803b15801561012c57600080fd5b505afa158015610140573d6000803e3d6000fd5b505050506040513d602081101561015657600080fd5b8101908080519060200190929190505050905091905056fea165627a7a723058202afe8819e213b1d36df653a8799b90fbfa8cad9d648b85dbea7f97f3c646a566002960806040526000600c553480156200001657600080fd5b5060405162002cef38038062002cef833981018060405260408110156200003c57600080fd5b8101908080516401000000008111156200005557600080fd5b828101905060208101848111156200006c57600080fd5b81518560018202830111640100000000821117156200008a57600080fd5b50509291906020018051640100000000811115620000a757600080fd5b82810190506020810184811115620000be57600080fd5b8151856020820283011164010000000082111715620000dc57600080fd5b5050929190505050604051806020016040528060008152506040518060400160405280600381526020017f58585800000000000000000000000000000000000000000000000000000000008152508181620001446301ffc9a760e01b620001fd60201b60201c565b6200015c6380ac58cd60e01b620001fd60201b60201c565b6200017463780e9d6360e01b620001fd60201b60201c565b81600990805190602001906200018c92919062000876565b5080600a9080519060200190620001a592919062000876565b50620001be635b5e139f60e01b620001fd60201b60201c565b50505050620001e433600c6000815480929190600101919050556200030660201b60201c565b620001f5816200034460201b60201c565b505062000925565b63ffffffff60e01b817bffffffffffffffffffffffffffffffffffffffffffffffffffffffff191614156200029a576040517f08c379a000000000000000000000000000000000000000000000000000000000815260040180806020018281038252601c8152602001807f4552433136353a20696e76616c696420696e746572666163652069640000000081525060200191505060405180910390fd5b6001600080837bffffffffffffffffffffffffffffffffffffffffffffffffffffffff19167bffffffffffffffffffffffffffffffffffffffffffffffffffffffff1916815260200190815260200160002060006101000a81548160ff02191690831515021790555050565b6200031d8282620003ba60201b620018221760201c565b6200032f8282620005e960201b60201c565b6200034081620006b060201b60201c565b5050565b60006200035733620006fc60201b60201c565b116200036257600080fd5b60008090505b8151811015620003b657620003a88282815181106200038357fe5b6020026020010151600c6000815480929190600101919050556200030660201b60201c565b808060010191505062000368565b5050565b600073ffffffffffffffffffffffffffffffffffffffff168273ffffffffffffffffffffffffffffffffffffffff1614156200045e576040517f08c379a00000000000000000000000000000000000000000000000000000000081526004018080602001828103825260208152602001807f4552433732313a206d696e7420746f20746865207a65726f206164647265737381525060200191505060405180910390fd5b6200046f81620007e060201b60201c565b15620004e3576040517f08c379a000000000000000000000000000000000000000000000000000000000815260040180806020018281038252601c8152602001807f4552433732313a20746f6b656e20616c7265616479206d696e7465640000000081525060200191505060405180910390fd5b816001600083815260200190815260200160002060006101000a81548173ffffffffffffffffffffffffffffffffffffffff021916908373ffffffffffffffffffffffffffffffffffffffff16021790555062000589600360008473ffffffffffffffffffffffffffffffffffffffff1673ffffffffffffffffffffffffffffffffffffffff1681526020019081526020016000206200085260201b62001f591760201c565b808273ffffffffffffffffffffffffffffffffffffffff16600073ffffffffffffffffffffffffffffffffffffffff167fddf252ad1be2c89b69c2b068fc378daa952ba7f163c4a11628f55a4df523b3ef60405160405180910390a45050565b600560008373ffffffffffffffffffffffffffffffffffffffff1673ffffffffffffffffffffffffffffffffffffffff168152602001908152602001600020805490506006600083815260200190815260200160002081905550600560008373ffffffffffffffffffffffffffffffffffffffff1673ffffffffffffffffffffffffffffffffffffffff1681526020019081526020016000208190806001815401808255809150509060018203906000526020600020016000909192909190915055505050565b6007805490506008600083815260200190815260200160002081905550600781908060018154018082558091505090600182039060005260206000200160009091929091909150555050565b60008073ffffffffffffffffffffffffffffffffffffffff168273ffffffffffffffffffffffffffffffffffffffff16141562000785576040517f08c379a000000000000000000000000000000000000000000000000000000000815260040180806020018281038252602a81526020018062002cc5602a913960400191505060405180910390fd5b620007d9600360008473ffffffffffffffffffffffffffffffffffffffff1673ffffffffffffffffffffffffffffffffffffffff1681526020019081526020016000206200086860201b6200162b1760201c565b9050919050565b6000806001600084815260200190815260200160002060009054906101000a900473ffffffffffffffffffffffffffffffffffffffff169050600073ffffffffffffffffffffffffffffffffffffffff168173ffffffffffffffffffffffffffffffffffffffff161415915050919050565b6001816000016000828254019250508190555050565b600081600001549050919050565b828054600181600116156101000203166002900490600052602060002090601f016020900481019282601f10620008b957805160ff1916838001178555620008ea565b82800160010185558215620008ea579182015b82811115620008e9578251825591602001919060010190620008cc565b5b509050620008f99190620008fd565b5090565b6200092291905b808211156200091e57600081600090555060010162000904565b5090565b90565b61239080620009356000396000f3fe608060405234801561001057600080fd5b506004361061010b5760003560e01c806342842e0e116100a257806395d89b411161007157806395d89b41146105d0578063a22cb46514610653578063b88d4fde146106a3578063c87b56dd146107a8578063e985e9c51461084f5761010b565b806342842e0e1461045a5780634f6ccce7146104c85780636352211e1461050a57806370a08231146105785761010b565b806318160ddd116100de57806318160ddd146102b45780631cf995bb146102d257806323b872dd1461038a5780632f745c59146103f85761010b565b806301ffc9a71461011057806306fdde0314610175578063081812fc146101f8578063095ea7b314610266575b600080fd5b61015b6004803603602081101561012657600080fd5b8101908080357bffffffffffffffffffffffffffffffffffffffffffffffffffffffff191690602001909291905050506108cb565b604051808215151515815260200191505060405180910390f35b61017d610932565b6040518080602001828103825283818151815260200191508051906020019080838360005b838110156101bd5780820151818401526020810190506101a2565b50505050905090810190601f1680156101ea5780820380516001836020036101000a031916815260200191505b509250505060405180910390f35b6102246004803603602081101561020e57600080fd5b81019080803590602001909291905050506109d4565b604051808273ffffffffffffffffffffffffffffffffffffffff1673ffffffffffffffffffffffffffffffffffffffff16815260200191505060405180910390f35b6102b26004803603604081101561027c57600080fd5b81019080803573ffffffffffffffffffffffffffffffffffffffff16906020019092919080359060200190929190505050610a6f565b005b6102bc610c48565b6040518082815260200191505060405180910390f35b610388600480360360208110156102e857600080fd5b810190808035906020019064010000000081111561030557600080fd5b82018360208201111561031757600080fd5b8035906020019184602083028401116401000000008311171561033957600080fd5b919080806020026020016040519081016040528093929190818152602001838360200280828437600081840152601f19601f820116905080830192505050505050509192919290505050610c55565b005b6103f6600480360360608110156103a057600080fd5b81019080803573ffffffffffffffffffffffffffffffffffffffff169060200190929190803573ffffffffffffffffffffffffffffffffffffffff16906020019092919080359060200190929190505050610cb7565b005b6104446004803603604081101561040e57600080fd5b81019080803573ffffffffffffffffffffffffffffffffffffffff16906020019092919080359060200190929190505050610d26565b6040518082815260200191505060405180910390f35b6104c66004803603606081101561047057600080fd5b81019080803573ffffffffffffffffffffffffffffffffffffffff169060200190929190803573ffffffffffffffffffffffffffffffffffffffff16906020019092919080359060200190929190505050610de5565b005b6104f4600480360360208110156104de57600080fd5b8101908080359060200190929190505050610e05565b6040518082815260200191505060405180910390f35b6105366004803603602081101561052057600080fd5b8101908080359060200190929190505050610e85565b604051808273ffffffffffffffffffffffffffffffffffffffff1673ffffffffffffffffffffffffffffffffffffffff16815260200191505060405180910390f35b6105ba6004803603602081101561058e57600080fd5b81019080803573ffffffffffffffffffffffffffffffffffffffff169060200190929190505050610f4d565b6040518082815260200191505060405180910390f35b6105d8611022565b6040518080602001828103825283818151815260200191508051906020019080838360005b838110156106185780820151818401526020810190506105fd565b50505050905090810190601f1680156106455780820380516001836020036101000a031916815260200191505b509250505060405180910390f35b6106a16004803603604081101561066957600080fd5b81019080803573ffffffffffffffffffffffffffffffffffffffff1690602001909291908035151590602001909291905050506110c4565b005b6107a6600480360360808110156106b957600080fd5b81019080803573ffffffffffffffffffffffffffffffffffffffff169060200190929190803573ffffffffffffffffffffffffffffffffffffffff169060200190929190803590602001909291908035906020019064010000000081111561072057600080fd5b82018360208201111561073257600080fd5b8035906020019184600183028401116401000000008311171561075457600080fd5b91908080601f016020809104026020016040519081016040528093929190818152602001838380828437600081840152601f19601f820116905080830192505050505050509192919290505050611267565b005b6107d4600480360360208110156107be57600080fd5b81019080803590602001909291905050506112d9565b6040518080602001828103825283818151815260200191508051906020019080838360005b838110156108145780820151818401526020810190506107f9565b50505050905090810190601f1680156108415780820380516001836020036101000a031916815260200191505b509250505060405180910390f35b6108b16004803603604081101561086557600080fd5b81019080803573ffffffffffffffffffffffffffffffffffffffff169060200190929190803573ffffffffffffffffffffffffffffffffffffffff1690602001909291905050506113ec565b604051808215151515815260200191505060405180910390f35b6000806000837bffffffffffffffffffffffffffffffffffffffffffffffffffffffff19167bffffffffffffffffffffffffffffffffffffffffffffffffffffffff1916815260200190815260200160002060009054906101000a900460ff169050919050565b606060098054600181600116156101000203166002900480601f0160208091040260200160405190810160405280929190818152602001828054600181600116156101000203166002900480156109ca5780601f1061099f576101008083540402835291602001916109ca565b820191906000526020600020905b8154815290600101906020018083116109ad57829003601f168201915b5050505050905090565b60006109df82611480565b610a34576040517f08c379a000000000000000000000000000000000000000000000000000000000815260040180806020018281038252602c815260200180612263602c913960400191505060405180910390fd5b6002600083815260200190815260200160002060009054906101000a900473ffffffffffffffffffffffffffffffffffffffff169050919050565b6000610a7a82610e85565b90508073ffffffffffffffffffffffffffffffffffffffff168373ffffffffffffffffffffffffffffffffffffffff161415610b01576040517f08c379a00000000000000000000000000000000000000000000000000000000081526004018080602001828103825260218152602001806122e76021913960400191505060405180910390fd5b8073ffffffffffffffffffffffffffffffffffffffff163373ffffffffffffffffffffffffffffffffffffffff161480610b415750610b4081336113ec565b5b610b96576040517f08c379a00000000000000000000000000000000000000000000000000000000081526004018080602001828103825260388152602001806121d86038913960400191505060405180910390fd5b826002600084815260200190815260200160002060006101000a81548173ffffffffffffffffffffffffffffffffffffffff021916908373ffffffffffffffffffffffffffffffffffffffff160217905550818373ffffffffffffffffffffffffffffffffffffffff168273ffffffffffffffffffffffffffffffffffffffff167f8c5be1e5ebec7d5bd14f71427d1e84f3dd0314c0f7b2291e5b200ac8c7c3b92560405160405180910390a4505050565b6000600780549050905090565b6000610c6033610f4d565b11610c6a57600080fd5b60008090505b8151811015610cb357610ca6828281518110610c8857fe5b6020026020010151600c6000815480929190600101919050556114f2565b8080600101915050610c70565b5050565b610cc13382611513565b610d16576040517f08c379a00000000000000000000000000000000000000000000000000000000081526004018080602001828103825260318152602001806123086031913960400191505060405180910390fd5b610d21838383611607565b505050565b6000610d3183610f4d565b8210610d88576040517f08c379a000000000000000000000000000000000000000000000000000000000815260040180806020018281038252602b81526020018061212b602b913960400191505060405180910390fd5b600560008473ffffffffffffffffffffffffffffffffffffffff1673ffffffffffffffffffffffffffffffffffffffff1681526020019081526020016000208281548110610dd257fe5b9060005260206000200154905092915050565b610e0083838360405180602001604052806000815250611267565b505050565b6000610e0f610c48565b8210610e66576040517f08c379a000000000000000000000000000000000000000000000000000000000815260040180806020018281038252602c815260200180612339602c913960400191505060405180910390fd5b60078281548110610e7357fe5b90600052602060002001549050919050565b6000806001600084815260200190815260200160002060009054906101000a900473ffffffffffffffffffffffffffffffffffffffff169050600073ffffffffffffffffffffffffffffffffffffffff168173ffffffffffffffffffffffffffffffffffffffff161415610f44576040517f08c379a000000000000000000000000000000000000000000000000000000000815260040180806020018281038252602981526020018061223a6029913960400191505060405180910390fd5b80915050919050565b60008073ffffffffffffffffffffffffffffffffffffffff168273ffffffffffffffffffffffffffffffffffffffff161415610fd4576040517f08c379a000000000000000000000000000000000000000000000000000000000815260040180806020018281038252602a815260200180612210602a913960400191505060405180910390fd5b61101b600360008473ffffffffffffffffffffffffffffffffffffffff1673ffffffffffffffffffffffffffffffffffffffff16815260200190815260200160002061162b565b9050919050565b6060600a8054600181600116156101000203166002900480601f0160208091040260200160405190810160405280929190818152602001828054600181600116156101000203166002900480156110ba5780601f1061108f576101008083540402835291602001916110ba565b820191906000526020600020905b81548152906001019060200180831161109d57829003601f168201915b5050505050905090565b3373ffffffffffffffffffffffffffffffffffffffff168273ffffffffffffffffffffffffffffffffffffffff161415611166576040517f08c379a00000000000000000000000000000000000000000000000000000000081526004018080602001828103825260198152602001807f4552433732313a20617070726f766520746f2063616c6c65720000000000000081525060200191505060405180910390fd5b80600460003373ffffffffffffffffffffffffffffffffffffffff1673ffffffffffffffffffffffffffffffffffffffff16815260200190815260200160002060008473ffffffffffffffffffffffffffffffffffffffff1673ffffffffffffffffffffffffffffffffffffffff16815260200190815260200160002060006101000a81548160ff0219169083151502179055508173ffffffffffffffffffffffffffffffffffffffff163373ffffffffffffffffffffffffffffffffffffffff167f17307eab39ab6107e8899845ad3d59bd9653f200f220920489ca2b5937696c3183604051808215151515815260200191505060405180910390a35050565b611272848484610cb7565b61127e84848484611639565b6112d3576040517f08c379a00000000000000000000000000000000000000000000000000000000081526004018080602001828103825260328152602001806121566032913960400191505060405180910390fd5b50505050565b60606112e482611480565b611339576040517f08c379a000000000000000000000000000000000000000000000000000000000815260040180806020018281038252602f8152602001806122b8602f913960400191505060405180910390fd5b600b60008381526020019081526020016000208054600181600116156101000203166002900480601f0160208091040260200160405190810160405280929190818152602001828054600181600116156101000203166002900480156113e05780601f106113b5576101008083540402835291602001916113e0565b820191906000526020600020905b8154815290600101906020018083116113c357829003601f168201915b50505050509050919050565b6000600460008473ffffffffffffffffffffffffffffffffffffffff1673ffffffffffffffffffffffffffffffffffffffff16815260200190815260200160002060008373ffffffffffffffffffffffffffffffffffffffff1673ffffffffffffffffffffffffffffffffffffffff16815260200190815260200160002060009054906101000a900460ff16905092915050565b6000806001600084815260200190815260200160002060009054906101000a900473ffffffffffffffffffffffffffffffffffffffff169050600073ffffffffffffffffffffffffffffffffffffffff168173ffffffffffffffffffffffffffffffffffffffff161415915050919050565b6114fc8282611822565b6115068282611a3a565b61150f81611b01565b5050565b600061151e82611480565b611573576040517f08c379a000000000000000000000000000000000000000000000000000000000815260040180806020018281038252602c8152602001806121ac602c913960400191505060405180910390fd5b600061157e83610e85565b90508073ffffffffffffffffffffffffffffffffffffffff168473ffffffffffffffffffffffffffffffffffffffff1614806115ed57508373ffffffffffffffffffffffffffffffffffffffff166115d5846109d4565b73ffffffffffffffffffffffffffffffffffffffff16145b806115fe57506115fd81856113ec565b5b91505092915050565b611612838383611b4d565b61161c8382611da8565b6116268282611a3a565b505050565b600081600001549050919050565b600061165a8473ffffffffffffffffffffffffffffffffffffffff16611f46565b611667576001905061181a565b60008473ffffffffffffffffffffffffffffffffffffffff1663150b7a02338887876040518563ffffffff1660e01b8152600401808573ffffffffffffffffffffffffffffffffffffffff1673ffffffffffffffffffffffffffffffffffffffff1681526020018473ffffffffffffffffffffffffffffffffffffffff1673ffffffffffffffffffffffffffffffffffffffff16815260200183815260200180602001828103825283818151815260200191508051906020019080838360005b83811015611742578082015181840152602081019050611727565b50505050905090810190601f16801561176f5780820380516001836020036101000a031916815260200191505b5095505050505050602060405180830381600087803b15801561179157600080fd5b505af11580156117a5573d6000803e3d6000fd5b505050506040513d60208110156117bb57600080fd5b8101908080519060200190929190505050905063150b7a0260e01b7bffffffffffffffffffffffffffffffffffffffffffffffffffffffff1916817bffffffffffffffffffffffffffffffffffffffffffffffffffffffff1916149150505b949350505050565b600073ffffffffffffffffffffffffffffffffffffffff168273ffffffffffffffffffffffffffffffffffffffff1614156118c5576040517f08c379a00000000000000000000000000000000000000000000000000000000081526004018080602001828103825260208152602001807f4552433732313a206d696e7420746f20746865207a65726f206164647265737381525060200191505060405180910390fd5b6118ce81611480565b15611941576040517f08c379a000000000000000000000000000000000000000000000000000000000815260040180806020018281038252601c8152602001807f4552433732313a20746f6b656e20616c7265616479206d696e7465640000000081525060200191505060405180910390fd5b816001600083815260200190815260200160002060006101000a81548173ffffffffffffffffffffffffffffffffffffffff021916908373ffffffffffffffffffffffffffffffffffffffff1602179055506119da600360008473ffffffffffffffffffffffffffffffffffffffff1673ffffffffffffffffffffffffffffffffffffffff168152602001908152602001600020611f59565b808273ffffffffffffffffffffffffffffffffffffffff16600073ffffffffffffffffffffffffffffffffffffffff167fddf252ad1be2c89b69c2b068fc378daa952ba7f163c4a11628f55a4df523b3ef60405160405180910390a45050565b600560008373ffffffffffffffffffffffffffffffffffffffff1673ffffffffffffffffffffffffffffffffffffffff168152602001908152602001600020805490506006600083815260200190815260200160002081905550600560008373ffffffffffffffffffffffffffffffffffffffff1673ffffffffffffffffffffffffffffffffffffffff1681526020019081526020016000208190806001815401808255809150509060018203906000526020600020016000909192909190915055505050565b6007805490506008600083815260200190815260200160002081905550600781908060018154018082558091505090600182039060005260206000200160009091929091909150555050565b8273ffffffffffffffffffffffffffffffffffffffff16611b6d82610e85565b73ffffffffffffffffffffffffffffffffffffffff1614611bd9576040517f08c379a000000000000000000000000000000000000000000000000000000000815260040180806020018281038252602981526020018061228f6029913960400191505060405180910390fd5b600073ffffffffffffffffffffffffffffffffffffffff168273ffffffffffffffffffffffffffffffffffffffff161415611c5f576040517f08c379a00000000000000000000000000000000000000000000000000000000081526004018080602001828103825260248152602001806121886024913960400191505060405180910390fd5b611c6881611f6f565b611caf600360008573ffffffffffffffffffffffffffffffffffffffff1673ffffffffffffffffffffffffffffffffffffffff16815260200190815260200160002061202d565b611cf6600360008473ffffffffffffffffffffffffffffffffffffffff1673ffffffffffffffffffffffffffffffffffffffff168152602001908152602001600020611f59565b816001600083815260200190815260200160002060006101000a81548173ffffffffffffffffffffffffffffffffffffffff021916908373ffffffffffffffffffffffffffffffffffffffff160217905550808273ffffffffffffffffffffffffffffffffffffffff168473ffffffffffffffffffffffffffffffffffffffff167fddf252ad1be2c89b69c2b068fc378daa952ba7f163c4a11628f55a4df523b3ef60405160405180910390a4505050565b6000611e006001600560008673ffffffffffffffffffffffffffffffffffffffff1673ffffffffffffffffffffffffffffffffffffffff1681526020019081526020016000208054905061205090919063ffffffff16565b9050600060066000848152602001908152602001600020549050818114611eed576000600560008673ffffffffffffffffffffffffffffffffffffffff1673ffffffffffffffffffffffffffffffffffffffff1681526020019081526020016000208381548110611e6d57fe5b9060005260206000200154905080600560008773ffffffffffffffffffffffffffffffffffffffff1673ffffffffffffffffffffffffffffffffffffffff1681526020019081526020016000208381548110611ec557fe5b9060005260206000200181905550816006600083815260200190815260200160002081905550505b600560008573ffffffffffffffffffffffffffffffffffffffff1673ffffffffffffffffffffffffffffffffffffffff168152602001908152602001600020805480919060019003611f3f91906120d9565b5050505050565b600080823b905060008111915050919050565b6001816000016000828254019250508190555050565b600073ffffffffffffffffffffffffffffffffffffffff166002600083815260200190815260200160002060009054906101000a900473ffffffffffffffffffffffffffffffffffffffff1673ffffffffffffffffffffffffffffffffffffffff161461202a5760006002600083815260200190815260200160002060006101000a81548173ffffffffffffffffffffffffffffffffffffffff021916908373ffffffffffffffffffffffffffffffffffffffff1602179055505b50565b6120456001826000015461205090919063ffffffff16565b816000018190555050565b6000828211156120c8576040517f08c379a000000000000000000000000000000000000000000000000000000000815260040180806020018281038252601e8152602001807f536166654d6174683a207375627472616374696f6e206f766572666c6f77000081525060200191505060405180910390fd5b600082840390508091505092915050565b815481835581811115612100578183600052602060002091820191016120ff9190612105565b5b505050565b61212791905b8082111561212357600081600090555060010161210b565b5090565b9056fe455243373231456e756d657261626c653a206f776e657220696e646578206f7574206f6620626f756e64734552433732313a207472616e7366657220746f206e6f6e20455243373231526563656976657220696d706c656d656e7465724552433732313a207472616e7366657220746f20746865207a65726f20616464726573734552433732313a206f70657261746f7220717565727920666f72206e6f6e6578697374656e7420746f6b656e4552433732313a20617070726f76652063616c6c6572206973206e6f74206f776e6572206e6f7220617070726f76656420666f7220616c6c4552433732313a2062616c616e636520717565727920666f7220746865207a65726f20616464726573734552433732313a206f776e657220717565727920666f72206e6f6e6578697374656e7420746f6b656e4552433732313a20617070726f76656420717565727920666f72206e6f6e6578697374656e7420746f6b656e4552433732313a207472616e73666572206f6620746f6b656e2074686174206973206e6f74206f776e4552433732314d657461646174613a2055524920717565727920666f72206e6f6e6578697374656e7420746f6b656e4552433732313a20617070726f76616c20746f2063757272656e74206f776e65724552433732313a207472616e736665722063616c6c6572206973206e6f74206f776e6572206e6f7220617070726f766564455243373231456e756d657261626c653a20676c6f62616c20696e646578206f7574206f6620626f756e6473a165627a7a72305820b6cbc4f0a87cccc14eb89d07604ba0ae1ccc78f901eaa959df138f860ed49e0300294552433732313a2062616c616e636520717565727920666f7220746865207a65726f2061646472657373608060405234801561001057600080fd5b5060405160208061022d8339810180604052602081101561003057600080fd5b8101908080519060200190929190505050806000806101000a81548173ffffffffffffffffffffffffffffffffffffffff021916908373ffffffffffffffffffffffffffffffffffffffff1602179055505061019c806100916000396000f3fe608060405234801561001057600080fd5b506004361061002b5760003560e01c8063a230c52414610030575b600080fd5b6100726004803603602081101561004657600080fd5b81019080803573ffffffffffffffffffffffffffffffffffffffff16906020019092919050505061008c565b604051808215151515815260200191505060405180910390f35b6000806000809054906101000a900473ffffffffffffffffffffffffffffffffffffffff1673ffffffffffffffffffffffffffffffffffffffff166370a08231846040518263ffffffff1660e01b8152600401808273ffffffffffffffffffffffffffffffffffffffff1673ffffffffffffffffffffffffffffffffffffffff16815260200191505060206040518083038186803b15801561012d57600080fd5b505afa158015610141573d6000803e3d6000fd5b505050506040513d602081101561015757600080fd5b810190808051906020019092919050505011905091905056fea165627a7a72305820602c786a65966a863270edf5a6432e06362ea18732e88cbf08cdb0b638e50c1d0029a165627a7a72305820c8370277a7d09a6c99a3784273279ea7040d664c1e470317c44d979b855c41ec0029",
  "source": "pragma solidity >=0.4.21 <0.6.0;\n\nimport \"./Space.sol\";\nimport \"./ERC20MembershipResolver.sol\";\nimport \"./ERC721MembershipResolver.sol\";\nimport \"./ERC721SpaceCadet.sol\";\n\n// TODO(liamz): typo should be space factory\ncontract SpaceCadetFactory {\n    event NewSpace(address indexed space, string indexed name);\n\n    constructor() public {\n    }\n\n    function createERC20Space(string calldata name, address erc20) external {\n        Space space = new Space(new ERC20MembershipResolver(erc20));\n        emit NewSpace(address(space), name);\n    }\n\n    function createERC721Space(string calldata name, address erc721) external {\n        Space space = new Space(new ERC721MembershipResolver(erc721));\n        emit NewSpace(address(space), name);\n    }\n\n    function createSpace(string calldata name, address[] calldata invitees) external {\n        ERC721SpaceCadet erc = new ERC721SpaceCadet(name, invitees);\n        this.createERC721Space(name, address(erc));\n    }\n}\n",
  "sourcePath": "/Users/liamz/Documents/open-source/everest/fundao/contracts/SpaceCadetFactory.sol",
  "compiler": {
    "name": "solc",
    "version": "0.5.8+commit.23d335f2.Emscripten.clang"
  },
  "schemaVersion": "3.0.10",
  "updatedAt": "2019-09-18T10:13:15.538Z",
  "devdoc": {
    "methods": {}
  },
  "userdoc": {
    "methods": {}
  }
}