{
  "contractName": "Space",
  "abi": [
    {
      "inputs": [
        {
          "name": "_IMembershipResolver",
          "type": "address"
        }
      ],
      "payable": false,
      "stateMutability": "nonpayable",
      "type": "constructor"
    },
    {
      "constant": false,
      "inputs": [
        {
          "name": "a",
          "type": "address"
        }
      ],
      "name": "isMember",
      "outputs": [
        {
          "name": "",
          "type": "bool"
        }
      ],
      "payable": false,
      "stateMutability": "nonpayable",
      "type": "function"
    }
  ],
  "bytecode": "0x608060405234801561001057600080fd5b5060405160208061022d8339810180604052602081101561003057600080fd5b8101908080519060200190929190505050806000806101000a81548173ffffffffffffffffffffffffffffffffffffffff021916908373ffffffffffffffffffffffffffffffffffffffff1602179055505061019c806100916000396000f3fe608060405234801561001057600080fd5b506004361061002b5760003560e01c8063a230c52414610030575b600080fd5b6100726004803603602081101561004657600080fd5b81019080803573ffffffffffffffffffffffffffffffffffffffff16906020019092919050505061008c565b604051808215151515815260200191505060405180910390f35b60008060009054906101000a900473ffffffffffffffffffffffffffffffffffffffff1673ffffffffffffffffffffffffffffffffffffffff1663a230c524836040518263ffffffff1660e01b8152600401808273ffffffffffffffffffffffffffffffffffffffff1673ffffffffffffffffffffffffffffffffffffffff168152602001915050602060405180830381600087803b15801561012e57600080fd5b505af1158015610142573d6000803e3d6000fd5b505050506040513d602081101561015857600080fd5b8101908080519060200190929190505050905091905056fea165627a7a7230582062b412cb7e4dfb898e71d9c72fd592d9169724f3f5ee588ef0b72af9cc03cfdb0029",
  "source": "pragma solidity >=0.4.21 <0.6.0;\n\nimport \"./IMembershipResolver.sol\";\n\ncontract Space is IMembershipResolver {\n    IMembershipResolver membershipResolver;\n\n    constructor(IMembershipResolver _IMembershipResolver) public {\n        membershipResolver = _IMembershipResolver;\n    }\n\n    function isMember(address a) public returns (bool) {\n        return membershipResolver.isMember(a);\n    }\n}",
  "sourcePath": "/Users/liamz/Documents/open-source/everest/fundao/contracts/Space.sol",
  "compiler": {
    "name": "solc",
    "version": "0.5.8+commit.23d335f2.Emscripten.clang"
  },
  "schemaVersion": "3.0.10",
  "updatedAt": "2019-09-06T21:59:26.211Z",
  "devdoc": {
    "methods": {}
  },
  "userdoc": {
    "methods": {}
  }
}