{
  "contractName": "ERC721MembershipResolver",
  "abi": [
    {
      "inputs": [
        {
          "name": "_IERC721",
          "type": "address"
        }
      ],
      "payable": false,
      "stateMutability": "nonpayable",
      "type": "constructor"
    },
    {
      "constant": true,
      "inputs": [
        {
          "name": "x",
          "type": "address"
        }
      ],
      "name": "isMember",
      "outputs": [
        {
          "name": "",
          "type": "bool"
        }
      ],
      "payable": false,
      "stateMutability": "view",
      "type": "function"
    }
  ],
  "bytecode": "0x608060405234801561001057600080fd5b5060405160208061022d8339810180604052602081101561003057600080fd5b8101908080519060200190929190505050806000806101000a81548173ffffffffffffffffffffffffffffffffffffffff021916908373ffffffffffffffffffffffffffffffffffffffff1602179055505061019c806100916000396000f3fe608060405234801561001057600080fd5b506004361061002b5760003560e01c8063a230c52414610030575b600080fd5b6100726004803603602081101561004657600080fd5b81019080803573ffffffffffffffffffffffffffffffffffffffff16906020019092919050505061008c565b604051808215151515815260200191505060405180910390f35b6000806000809054906101000a900473ffffffffffffffffffffffffffffffffffffffff1673ffffffffffffffffffffffffffffffffffffffff166370a08231846040518263ffffffff1660e01b8152600401808273ffffffffffffffffffffffffffffffffffffffff1673ffffffffffffffffffffffffffffffffffffffff16815260200191505060206040518083038186803b15801561012d57600080fd5b505afa158015610141573d6000803e3d6000fd5b505050506040513d602081101561015757600080fd5b810190808051906020019092919050505011905091905056fea165627a7a72305820602c786a65966a863270edf5a6432e06362ea18732e88cbf08cdb0b638e50c1d0029",
  "source": "pragma solidity >=0.4.21 <0.6.0;\n\nimport \"@openzeppelin/contracts/token/ERC721/IERC721.sol\";\nimport \"./IMembershipResolver.sol\";\n\ncontract ERC721MembershipResolver is IMembershipResolver {\n    IERC721 erc721;\n    \n    constructor(address _IERC721) public {\n        erc721 = IERC721(_IERC721);\n    }\n\n    function isMember(address x) public view returns (bool) {\n        return erc721.balanceOf(x) > 0;\n    }\n}",
  "sourcePath": "/Users/liamz/Documents/open-source/everest/fundao/contracts/ERC721MembershipResolver.sol",
  "compiler": {
    "name": "solc",
    "version": "0.5.8+commit.23d335f2.Emscripten.clang"
  },
  "schemaVersion": "3.0.10",
  "updatedAt": "2019-09-10T23:59:19.984Z",
  "devdoc": {
    "methods": {}
  },
  "userdoc": {
    "methods": {}
  }
}